:020000040800F2
:10000000008000202105000871050008B1250008C6
:100010007105000871050008710500080000000066
:10002000000000000000000000000000B16F0008A8
:10003000710500080000000041700008A57000086C
:1000400071050008710500087105000871050008B8
:1000500071050008710500087105000871050008A8
:100060007105000871050008710500087105000898
:100070007105000871050008710500087105000888
:100080007105000800000000B9240008710500088F
:100090007105000871050008710500087105000868
:1000A000E9240008D1240008710500087105000842
:1000B0007105000871050008252500087105000874
:1000C0007105000871050008710500087105000838
:1000D0007105000871050008452500087105000834
:1000E0007105000871050008710500087105000818
:1000F0007105000871050008710500080000000086
:1001000000000000710500080000000071050008F3
:1001100071050008000000009D240008710500081A
:1001200071050008710500087105000871050008D7
:1001300071050008000000000000000071050008C3
:1001400071050008710500080000000000000000B3
:10015000000000000000000000000000000000009F
:100160000000000000000000000000007105000811
:100170007105000800000000000000000000000001
:1001800000000000710500080000000000000000F1
:10019000000000000000000000000000000000005F
:1001A0000000000000000000710500087105000853
:1001B00071050008710500087105000800000000C5
:1001C00000000000710500080000000000000000B1
:0801D00071050008710500082B
:1001E00010B5054C237833B9044B13B10448AFF371
:1001F00000800123237010BDEC05002000000000EA
:100200006C9D000808B5034B1BB103490348AFF3CD
:10021000008008BD00000000F00500206C9D000873
:1002200053B94AB9002908BF00281CBF4FF0FF315D
:100230004FF0FF3000F072B9ADF1080C6DE904CE5B
:1002400000F006F8DDF804E0DDE9022304B07047B1
:100250002DE9F047089E04468846002B4BD18A4280
:10026000154667D9B2FA82F24AB1C2F1200701FA03
:1002700002F320FA07F7954047EA030894404FEA53
:10028000154E230CB8FBFEF71FFA85FC0EFB1788F2
:1002900043EA084307FB0CF1994209D9EB1807F12F
:1002A000FF3080F01B81994240F21881023F2B44BD
:1002B0005B1AA4B2B3FBFEF00EFB103344EA034416
:1002C00000FB0CFCA44509D92C1900F1FF3380F088
:1002D0000781A44540F2048102382C4440EA0740DB
:1002E000A4EB0C0400271EB1D4400023C6E9004350
:1002F0003946BDE8F0878B4209D9002E00F0EB802B
:100300000027C6E9000138463946BDE8F087B3FA50
:1003100083F7002F47D18B4202D3824200F2FA804A
:10032000841A61EB030301209846002EE0D0C6E951
:100330000048DDE702B9FFDEB2FA82F2002A40F09F
:100340008F80491B4FEA154E1FFA85F80127B1FB34
:10035000FEFC230C0EFB1C1143EA014308FB0CF1CD
:10036000994207D9EB180CF1FF3002D2994200F202
:10037000CD808446591AA3B2B1FBFEF00EFB1014D7
:1003800043EA044408FB00F8A04507D92C1900F102
:10039000FF3302D2A04500F2B6801846A4EB080451
:1003A00040EA0C409FE7C7F1200CBB4022FA0CFE4C
:1003B0004EEA030E01FA07F420FA0CF521FA0CF3C9
:1003C0004FEA1E482543B3FBF8F92C0C08FB193300
:1003D0001FFA8EFA44EA034309FB0AF49C4202FA2C
:1003E00007F200FA07F10BD91EEB030309F1FF3006
:1003F00080F087809C4240F28480A9F10209734416
:100400001B1BADB2B3FBF8F008FB103345EA034405
:1004100000FB0AFAA24508D91EEB040400F1FF33E1
:100420006BD2A24569D90238744440EA0940A0FB66
:100430000289A4EB0A044C45C2464B4654D351D022
:10044000002E69D0B1EB0A0564EB030404FA0CFC3E
:10045000FD40FC404CEA0505C6E90054002747E78B
:10046000C2F1200320FA03F7954001FA02F021FAC5
:1004700003F34FEA154E3843010CB3FBFEF71FFAA6
:1004800085F80EFB173341EA034107FB08F38B4263
:1004900004FA02F407D9691807F1FF3C2FD28B4206
:1004A0002DD9023F2944CB1A81B2B3FBFEF00EFBDB
:1004B000103341EA034100FB08F38B4207D9691866
:1004C00000F1FF3C17D28B4215D902382944C91AD2
:1004D00040EA07473BE73746304609E70746E7E685
:1004E0001846FBE64145ABD2B8EB020A69EB0E02B7
:1004F00001381346A4E76046E9E7184695E76746E2
:10050000D1E781467CE702382C4447E7ACF1020C86
:100510002B442FE7384608E73746E9E6704700BF27
:100520000D4885460D480E490E4A002302E0D45876
:10053000C4500433C4188C42F9D30B4A0B4C00232B
:1005400001E013600432A242FBD302F0AFFC09F0D9
:10055000E1FB00F053F8FEE70080002000000020DF
:10056000EC05002038A20008EC05002050190020FE
:10057000FEE7000030B50021A5B00C4605A83822E2
:1005800009F0ECFB2146442213A8CDE90044CDE953
:100590000244049409F0E2FB204604F019F801211A
:1005A0004FF480320223032505910692552105223E
:1005B00005A8CDE90F120C930E93CDE911330D95DB
:1005C00004F084F80F23684608210093CDE9015414
:1005D000CDE9034404F0CCFA49F202014FF0007275
:1005E0004FF0805313A813911F922293159404F097
:1005F000B9FC04F0AFFC25B030BD00BF2DE9804848
:10060000A9B002F061FCFFF7B5FFBE4BBE4EDA6C3D
:10061000BE4F42F00402DA64DA6C02F00402019286
:10062000019ADA6C42F02002DA64DA6C02F02002FD
:100630000292029ADA6C42F00102DA64DA6C02F099
:1006400001020392039ADA6C42F00202DA64DB6C74
:10065000002403F00203049321463C2218A8049BC3
:100660000D94CDE90B4409F079FB2146202210A816
:1006700009F074FB4FF0010B02254FF0040A4FF014
:10068000A0424FF400284FF400493046C6E9002844
:10069000C6F80C903562B46034613477747786F8AC
:1006A0002440C6E90B4486F83840F46386F840409D
:1006B000C6E905BA02F040FC0BA930460B9403F0E2
:1006C000FFF9934A20950923CDE9182302227F23BD
:1006D000CDE91A2304220023CDE91C2318A9842282
:1006E00080233046CDE922238DF884408DF8854063
:1006F0008DF886408DF8904002F040FF854A40F228
:100700000F1318A93046CDE9182302F037FF824AAB
:10071000109206237F2210A9304611931392CDF830
:1007200048A0CDE914A402F015FD7C4A0C23304604
:1007300010A9CDE9102302F00DFD21463C2218A896
:1007400009F00CFB764AC7F804803846C7E902492D
:100750003A60C7E9044BC7F818A03C777C77C7F824
:1007600020B087F8244087F83840FC6387F8404081
:1007700002F0E2FB664A20950923CDE91823022204
:100780007F23CDE91A2304220023CDE91C2318A9D5
:10079000842280233846CDE922238DF884408DF8C9
:1007A00085408DF886408DF8904002F0E7FE5D4A66
:1007B00040F20F13384618A9CDE9182302F0DEFEE7
:1007C000594A5A4911604FF44006104696605460E9
:1007D000C2E90344C2E9054403F0DCF9544A55492F
:1007E0009660104611605460C2E90344C2E90544B2
:1007F00003F0D0F9504A5149966010461160546098
:10080000C2E90344C2E9054403F0C4F94C4A4D4926
:100810004D4E116094801046C2E90544C2F820B0E4
:1008200003F0CCFA2146302218A809F097FA474A7B
:100830003260304603F03AFB02273046224600265B
:1008400018A94FF005084FF00009CDE91A67CDE966
:100850001C67CDE91E8918958DF864408DF86540B8
:1008600003F070FB3A4A3B4911601046C2E9075554
:100870005460C2E90244147454749474C2E905BB10
:10088000C2E909BBC2E90BBBC2E90D44D46303F062
:1008900043FC314A314911604FF040094FF40038B0
:1008A0004FF440471046C2E90987C2F808905460E7
:1008B000146114759461D46203F006FE284A294934
:1008C000C2F808901046C2E90987116054601461AB
:1008D00014759461D46203F0F7FD234A234E244932
:1008E000C2F808901046C2E909871160546014618B
:1008F00082F814B09461D46203F0E6FD34222146FC
:1009000018A837E0001002405815002004140020F9
:100910000800900C00106032020030042000F01437
:100920000001005000008CCBD014002000020140D8
:100930006C16002004020140341500200C02014016
:100940007014002000300240F01300200008005016
:10095000C815002000640040F81400200003014086
:100960007413002004030140941400202C1600206E
:10097000080301404FF48078CDE90B44CDE90D44E4
:100980000F9405940894CDE91044CDE91244CDE9C3
:1009900014441694CDE90644CDE9094409F0DEF982
:1009A00040F6D5528249316020233046C6E90328FB
:1009B000B3607460C6E905B404F020FC304604F06E
:1009C000BDFC4FF0100906230BA93046CDE90B39C9
:1009D000702704F0E1FF05A930460597CDE90644EC
:1009E00005F05EF9294608AA3046CDE9085B0A946D
:1009F00005F0D6F9294608AA3046CDF820A005F022
:100A0000CFF9294608AA3046CDF8209005F0C8F95C
:100A10006023224610A930461093CDE91144CDE958
:100A20001344CDE9154404F0D9FD524610A93046CF
:100A3000119404F0D3FD10A930460822119404F05B
:100A4000CDFD0C2210A93046CDE910744FF4806919
:100A5000139404F0C3FD4FF4006E44234FF4005C84
:100A6000CDE918E90327DFF860911B934FF000727E
:100A70004FF0807318A93046CDF874C0CDE920320C
:100A8000CDF868801C94CDE91E44CDE9234422971B
:100A900005F038F9304601F035FC464EDFF82C8180
:100AA000C9F80060062340F69F7218A948461C93B7
:100AB0002093C9F80C201994CDE91044129418978A
:100AC000CDF868B0CDF878B01B941D941F94C9E997
:100AD0000144C9F81040C9F8184004F0B7FC10A947
:100AE00048461094129405F0DBF8334AC8F81040D9
:100AF0000C23C8F8143040464FF4E123C8E9002322
:100B0000C8E90244C8E90644C8E90844C8F82840CE
:100B100005F0FEF92146404605F0FCFF214640461F
:100B200006F04AF8404605F0D7FF22465146182005
:100B300003F0E6F8182003F019F92246214619209F
:100B400003F0DEF8192003F011F92946224612209D
:100B500003F0D6F8122003F009F9224639461E2088
:100B600003F0CEF81E2003F001F9144D2246394659
:100B7000262003F0C5F8262003F0F8F80FCD10AEBC
:100B80000FC655F8043B3360214610A806F06CF8F8
:100B90000B4B18600FCD18AE0FC62B68336018A82A
:100BA000214606F061F8074B186006F057F8FEE79B
:100BB000002C01400008004000440040849D0008D3
:100BC000C4150020F4140020B0130020901600205B
:100BD0000268034B9A4200D0704702F089B900BF07
:100BE00000100040F8B500EBC003184A00EB4303C7
:100BF0005B0000249F1803F10C069C50054603F18E
:100C0000160126237C6003FB0523B450B718104857
:100C10007C608E18DC8350F825008C50214674606F
:100C20001C8407F053FB0B4B214653F8250007F0BB
:100C30004DFB094B53F8250008F03CFD074B53F8DA
:100C40002500BDE8F84007F015BD00BF481700209B
:100C50003C170020F4170020F81700203017002060
:100C60002DE9F04F614B624C624A236087B000244B
:100C700001901846604B614D02911C70156007F0A1
:100C8000CBFF07F0A9FB5E48DFF8C4A15D4DDFF89C
:100C9000C491DFF8C4815C4FDFF8C0B15B4E08F04F
:100CA000C5FD5B4807F0FEFA5A4A5B4B5849116094
:100CB00050462B6006F04CFF5346296857484A4679
:100CC00006F0F6FE534A564B1168544A1A602868DB
:100CD000524608F0D7FC484608F0AEFF404607F001
:100CE000E1FA384607F0DEFA4E494F4BC1F8008072
:100CF0004E49CBF8003018460F6008F027FC4C4BEB
:100D0000DBF80020C3F810214A4A4B4F13603046ED
:100D1000C3F80C7107F080FA484B494ADFF840816C
:100D200013601846C8F800604FF0010908F05CFC39
:100D30002046FFF757FF87F824902868414E08F0B7
:100D400061FD0346C0F30F423B827A82286808F0B7
:100D500059FD3D492A683160C0F30F4C3B46A7F866
:100D600014C00846264907F06BF82868376808F071
:100D700037FD22460146384607F070F8254A3768A5
:100D800000972A4917681A4A086811682A68039266
:100D9000284AD8F80050D2F800E0019A214E2B4B97
:100DA0003668DBF800C09046009AC8F80020039A25
:100DB0005A62134A9860C3E900761961C3E90B5C73
:100DC000C3F83CE0DC60C3E9054AC3E907449A6222
:100DD000C3E90D44C3E91044029AC3E91244136005
:100DE000054B83F8009007B0BDE8F08F8C0300201E
:100DF00030170020C0170020080600203C0100200A
:100E0000E4170020F8170020380400209C0200207E
:100E1000900400203417002004040020C4020020A5
:100E2000381700203C17002074020020F41700201F
:100E3000C0040020F017002048170020F001002017
:100E4000EC17002040170020C81700207017002062
:100E5000E00200205803002064040020C417002092
:100E60002C170020704700BF084B10B5262404FB48
:100E7000003494F8243003B110BD054B53F8200022
:100E800008F07EFCE083208210BD00BF48170020E0
:100E9000F8170020014B5880704700BF080600205B
:100EA000034B588880B2B0FA80F04009704700BF09
:100EB00008060020014B9880704700BF08060020FC
:100EC000034B988880B2B0FA80F04009704700BFA9
:100ED0000806002010B582B002A900238C4C21F82E
:100EE000023D8C4806F098FE206807F03FFA8A48D9
:100EF00008F030FD122818D8DFE810F02A0038007A
:100F000044005300620067007A00820095001300DD
:100F10001700170017009F00AE00BB00CF00DE00D7
:100F2000190000217C4808F0A1FC02B010BD7948EE
:100F300006F04CFE0421784808F098FC0028F4D014
:100F40000020FFF74FFE754B186807F04FFDECE7E8
:100F5000734806F0FBFD0028E7D00021704806F03A
:100F6000F3FD03216C4808F081FCDEE76B4B186849
:100F700007F014FD1420FFF78DFF0D21664808F0DF
:100F800075FCD2E7664806F0C5FD0446002840F02F
:100F9000AC80644B186808F0F3FB634B58821C82EA
:100FA000C3E75F4806F0CEFD002840F092800121A3
:100FB0005B4806F0C9FD0121574808F057FCB4E72B
:100FC0000521554808F052FCAFE70020FFF74AFF23
:100FD0000020FFF749FF06214F4808F047FC514B1E
:100FE000186808F01BFC514B186806F06FFF9CE76F
:100FF0004E4B186806F06AFF0020FFF735FF94E7B4
:10100000464B186807F036FD0020FFF7EBFD20681F
:1010100007F0C2F84FF44870FFF74CFF08213E4834
:1010200008F024FC81E7FFF74BFF00283FF47DAF79
:101030000921394808F01AFC77E7FFF731FF00284B
:101040003FF473AF354B0021186807F015FB0E21F4
:10105000314808F00BFC68E7304B0121186807F0B5
:101060000BFB00283FF461AF0F212B4808F0FEFB7B
:101070005BE72C4A2C4B10682D49012283F8242071
:1010800008F014FB264806F01DFD0221224808F056
:10109000EDFB00283FF449AF52E7FFF701FF0028BE
:1010A0003FF443AF1D4B0021186807F0E5FA11210A
:1010B000194808F0DBFB38E7184B0121186807F0E6
:1010C000DBFA00283FF431AF1221134808F0CEFBC1
:1010D0002BE7124B186807F061FC1420FFF7DAFECB
:1010E00010210D4808F0C2FB1FE70C4B0D4C18688F
:1010F00007F0C0FC2068012108F0F4FA20680549D7
:1011000008F0D4FA0721044808F0B0FB0DE700BF4F
:10111000F0170020E0020020E41700203017002024
:10112000C4020020F81700204817002040170020B4
:101130005803002038B5104C2578012D00D038BD5B
:10114000E3889BB2A3B1E388013B9BB2E380638851
:101150009BB243B9A3889BB2002BF0D0A388013B7C
:101160009BB2A38038BD6388013B9BB26380F1E7EB
:10117000FFF7B0FEE580EAE70806002008B5054B5A
:101180001B7803B908BDFFF7D5FFBDE8084001F0A3
:10119000B3BA00BF080600202DE9F0413148324FB4
:1011A000324C86B006F024FD314B186808F080FA06
:1011B000054608F021FA03A90646386807F044F905
:1011C000039806F021FF3146049006F08DFF294B6D
:1011D000B4F91010019000B2091A186807F082F8EB
:1011E000BDF90620244BB4F912108046891A1868FC
:1011F00007F078F8214BADF808801B68ADF80A00BD
:101200000299184606F0C2FB034628460FFA83F8F7
:101210001D14029308F0F8F93146029806F09EFF7B
:10122000034601463868059307F010F90146039814
:101230002060049860600198E06001290598A4F896
:10124000168025832684C4F81A0003D0002006B037
:10125000BDE8F08100220A4808F0EEFA002006B04E
:10126000BDE8F081E0020020301700204817002080
:10127000F81700203C170020F4170020C0170020AA
:10128000E4170020F8B5234B234F054653F8200000
:1012900006F0D4FF044657F8250007F017FA04F0CB
:1012A0000E040443A4B26DB31C4E05EB450306EBDC
:1012B0004306E24392B22146304608F0BDFA30467A
:1012C00008F048FB0A2808D00B2805D157F825005C
:1012D000BDE8F84007F0CEB9F8BD114B53F8250032
:1012E00010B1002106F030FC57F8250007F0C2F9D4
:1012F0002846FFF777FC0B4B53F82500BDE8F84074
:1013000006F04ABF084B186808F038F900F00E00E4
:101310000443C9E72C17002030170020E4170020F1
:1013200038170020F0170020C417002008B5064B1E
:101330001B78012B00D008BD0020FFF7A3FFBDE8FC
:10134000084000F045BD00BF0806002008B5054B69
:10135000186807F08FFB002280210348BDE8084091
:1013600008F06ABA30170020E417002008B500F032
:101370000FFC012006F0A8FAFFF700FFF9E700BF15
:1013800008B5012006F0A0FAFFF7D0FFF9E700BF8B
:10139000F0B4554A554CD461022794B0D761D4615A
:1013A000D36913935248139BD0610426D661D06150
:1013B000D36912934FF480414FF4A033129DD3614F
:1013C000D161D361D36911934FF090434FF0011174
:1013D0000125DDF844C0D961DD61D961D3F81CC0B5
:1013E000CDF840C0DDF840C0D161D561D161D1698F
:1013F0000F910F9D3F49D9618025DD61D961D3F8F7
:101400001CC0CDF838C0DDF838C0DC61DF61DC61BC
:10141000DC690D940D9F384CDC610827DF61DC61CD
:10142000DC690C940C9CD861DE61D861D8690B90A2
:101430000B9C3248D8614024DC61D861DE690A9691
:101440000A9F2F4EDE612027DF61DE61DE6909968B
:10145000099ED061D461D061D06908900898D161AB
:10146000D561D161D169079107982649D9614FF4B7
:101470008070D861D961D96906914FF400704FF43A
:101480008131069CD961D861D961D96905914FF440
:1014900080604FF48231059CD961D861D961D969E6
:1014A00004914FF480504FF48831049CD961D86185
:1014B000D961DB6903934FF400414FF4C0330398C3
:1014C000D361D161D361D2690F4B02924FF40051C5
:1014D0004FF490320298DA61D961DA61DB690193E5
:1014E000019B14B0F0BC70470004004802000100EA
:1014F000040001008000010008000100400001001C
:101500002000010000010100000800482DE9F0431F
:101510008DB0002716464A090C4699468DF8097089
:1015200005461DD10C290ED8DFE811F010004C0043
:10153000D40060010D000D006A019701AC01DF01CC
:1015400001021202290201238DF80E30D5E90C04A4
:1015500001230DF10E02FF21A0470DB0BDE8F0837D
:1015600002F1FF384246394601F016F9D0B1D5F8FC
:10157000C40004F01F0418B14246394601F00CF9CA
:101580000C2C00F2B782DFE814F0AD011D00A500BD
:101590003101B502B5023B0168017D01B001D20104
:1015A000E301FA010B239DF809008DF80E300028A5
:1015B000CCD000231A46D5E90C04F021A0470DB089
:1015C000BDE8F083317805238DF80E307E2900F2D6
:1015D0009782DFE811F08002950295027902950268
:1015E0006F026F026F026F026F026F026F026F0273
:1015F0006F026F026F025F025F02950295026F0237
:101600006F026F026F026F029502950295025502FA
:101610004B0295029502950295029502950295025C
:101620009502950295029502950295029502950202
:1016300095029502950295029502950295029502F2
:1016400095029502950295029502950295029502E2
:1016500095029502950295026F02950295029502F8
:1016600095025F025F025F02950295029502950264
:10167000950295026F029502950295026F026F0224
:101680006F026F026F026F026F0295025F02950296
:1016900095029502950295026F02950295026F02DE
:1016A0006F029502950295029502950295029502A8
:1016B000950295029502950295029502950279028E
:1016C0005F025F025F025F025F0295029502950270
:1016D0005F025F02317803238DF80E30822900F219
:1016E0000181DFE811F0B1019F01B101B1019F015A
:1016F0008D018D018D018D018D018D018D018D017A
:101700008D018D018D018D018D018D018D018D0169
:101710008D018D018D018D018D018D018D017C016A
:1017200069019F018D018D018D01B101FF00FF0055
:10173000FF00FF00FF00FF00FF00FF00FF00FF00B1
:10174000FF00FF00FF00FF00FF00FF00FF00FF00A1
:10175000FF00FF00FF00FF00FF00FF00FF00FF0091
:10176000FF00FF00FF00FF008D01FF00FF00FF00F2
:10177000FF009F019F019F018D018D018D018D0152
:10178000B1019F018D018D018D018D018D018D01B3
:101790008D018D018D018D018D01B1019F01FF0032
:1017A0008D018D018D018D018D01FF00FF008D01E7
:1017B0008D01B101B1019F019F019F019F019F0117
:1017C000B1018D018D019F01FF008D018D01B101DE
:1017D0009F019F019F019F019F019F019F019F0109
:1017E0009F019F019F01B101FF00B10107233178E3
:1017F0008DF80E30284601F095F88DF80900D6E6F0
:1018000004AC00212046202208F0A8FAD5F8C060D8
:101810000DF11200711E002305E001331D2B00F8AD
:10182000012F00F0738111F8012F092AF5D15A1DFB
:10183000D91D0933B25C8DF81020725C8DF811202F
:10184000F35C8DF8123022462023D5E90C04F021F8
:10185000A04701238DF80930ABE6777833787079AB
:10186000B4783279F17803EB072303EB044302EBFE
:10187000002203EB016192B2284601F091F88DF845
:10188000090094E60DF10E03317800930DF10A0280
:1018900003AB284601F096F8BDF90C30BDF80A00FC
:1018A000BDF90E108DF8141003EB43035B0000220A
:1018B0001C1263F3070264F30F221C1464F3174233
:1018C0001B1663F31F620912030A04928DF81510A8
:1018D0008DF816008DF81730D5E90C04082304AAFA
:1018E000F021A0479DF8090061E6B1787378F2789D
:1018F00034797079377A03EB012303EB0243854A8D
:10190000B17903EB046382FB0342F47900EB01201D
:10191000A2EBE37300B204EB0722317800901BB214
:1019200092B2284601F06CF88DF809003FE6F07895
:101930007378B278317802EB002201EB032112B206
:1019400009B2284601F076F801238DF8093030E617
:10195000714C04960C23214604A88DF814908DF840
:101960000E3001F075F88DF8090000283FF4EEAD57
:10197000D5E90C0623792268F021B047EDE5D5F8CA
:10198000C02004AC013A23460CAE04E003F8011B6E
:101990009E423FF458AF12F8011F181BC0B2002935
:1019A000F4D11F283FF64FAFC0F11F02D2B201326F
:1019B000204408F0D3F946E7D5F8C400002891D0B8
:1019C000012101F053F80CAA012302F8200D6C6BE1
:1019D000286BF021A04701238DF80930E9E5D5F8FF
:1019E000C40000283FF47EAF002101F03FF80CAAAC
:1019F0006C6B02F8200D0123286BF021A047ACE5A9
:101A00000DF10902284601F037F89DF809300490DD
:101A1000002B3FF49BADD5E90C04022304AAF0216E
:101A2000A0479AE50DF10902284601F025F89DF836
:101A300009300490002B3FF489ADD5E90C04042350
:101A400004AAF021A04788E50DF10902284601F01B
:101A500013F89DF809300490002B3FF477ADD5E9D9
:101A60000C04012304AAF021A04776E57278D5F88A
:101A7000C400012100F0F6FF01238DF8093098E53C
:101A80007278D5F8C400002100F0ECFF01238DF836
:101A900009308EE5B4787378F078327903EB04235B
:101AA00003EB004303EB0262284600F075FE8DF85D
:101AB00009007CE5B2787378284603EB022200F037
:101AC0006BFE8DF8090072E57278284600F064FE1E
:101AD0008DF809006BE57478D5F8C4002246002122
:101AE00000F05AFE22460021284600F055FE8DF8EF
:101AF00009005CE501239DF809008DF80E3056E5DC
:101B000002238DF80E309DF8090050E5262324218C
:101B100022228FE6ABAAAA2A1006002010B5C36BBA
:101B20000446006B9847802384F8C830206BA36B71
:101B3000BDE81040184700BFF0B583B004461E460C
:101B4000099B01630B4FC4F8C4300A9BC4F8C03032
:101B50000846154621460097074B089F074A06F09E
:101B600051F9C4E90D56E7632046FFF7D7FF03B0EC
:101B7000F0BD00BF811B00080D150008891B00087F
:101B800008B5FFF7CBFF08BD08B5FFF7C7FF08BDD5
:101B900030B5094D094C83B029462046FFF760F85F
:101BA000FFF7F6FB064B009322462B460121054822
:101BB00000F038FD03B030BD00180020FC170020F5
:101BC000BC9E0008D405002008B503F077F9044B4B
:101BD000A3FB0030C009BDE8084002F0D5B800BF43
:101BE000D34D62105C4A116870B4002976D0047934
:101BF0000B799C421ED05368002B00F082801D7927
:101C0000A5424FF0FF0170D09568002D00F095803F
:101C10002B79A3426FD0D368002B00F089801D7907
:101C2000A54278D0032988BFFF2140F28B80084667
:101C300070BC7047096803688B42DCD100219C6846
:101C4000464D42F82100002245F83120E50722D414
:101C50005A68042422F004025A601C605A68202446
:101C600022F020025A601C609A6822F0404222F062
:101C70003F0242F000429A609A68002AFCDB1A6830
:101C8000D40708D4364C9A68224042F001029A6088
:101C90001A68D207F7D51A6B22F00F021A6304797B
:101CA0000122092C4FEA846602FA04F204EB44058F
:101CB00037D846EA05552A43D40D04F004041433FA
:101CC0008568E058C2F3045207269640954020EA02
:101CD00006022A43E250084670BC70475368002B46
:101CE00032D004791D79A5428ED11D680368AB42BC
:101CF0008AD10121A3E72D6803689D428BD102217F
:101D00009DE795680121002D82D1D368D3B1047974
:101D10001D79A54286D11C6803689C4282D10321AB
:101D20008DE742F0007232431E3D42EA0552C3E79E
:101D300004297FF677AF0368F1E704298CBF0221FD
:101D40000021E2E703687AE7956815B1194604793E
:101D50005EE72946D9E700BF2C18002008180020AC
:101D6000C0FFFF7F10B4194B53F8203019791A685F
:101D700009294FF001034FEA816403FA01F301EBF3
:101D800041001BD844EA00500343116B1B0D03F4C0
:101D9000F86321F4F8610B431363136C936823F029
:101DA000004323F03F0343F00403936013685B0791
:101DB000FCD5106C5DF8044B80B2704743F00073A3
:101DC00023431E3843EA0053DFE700BF2C180020EE
:101DD00070B4234C2378012B01D070BC704721498B
:101DE000214A087852F8202011791268092903FA4B
:101DF00001F34FEA816601EB41052CD943F00073F2
:101E000033431E3D43EA0553116B1B0D03F4F86386
:101E100021F4F8610B431363136C936823F00043C0
:101E200023F03F0343F00403936013685B07FCD582
:101E30000E4B116C0E4E53F8305089B20222318095
:101E40002270002DC9D003EBC00300265A6826700B
:101E50002B4670BC184746EA05552B43D4E700BF14
:101E600028180020041800202C1800200818002032
:101E70003C180020114B00B51A6E42F001021A66A0
:101E80001A6E83B002F001020092009A9A6D42F03D
:101E900080529A659B6D03F08053019300220F21BD
:101EA0006FF00100019B01F02BFF054A936823F4BA
:101EB0008043936003B05DF804FB00BF0010024054
:101EC0000070004010B502688AB00023B2F1A04F44
:101ED000CDE90533CDE9073309931FD0314B9A4241
:101EE00001D00AB010BD304A13680133012B1360D2
:101EF0004DD02E4BDA6C42F00102DA64DB6C03F059
:101F0000010304934022032305A94FF09040049C51
:101F1000CDE9052302F0F2F90AB010BD224A136898
:101F20000133012B136027D0204BDA6C42F0010201
:101F3000DA64DA6C02F001020192019ADA6C42F082
:101F40000202DA64DB6C03F002030293032405232C
:101F500005A94FF09040029ACDE9053402F0CEF980
:101F600044F20202002305A911480793CDE9052494
:101F700002F0C4F90AB010BD0C4BDA6C42F4005206
:101F8000DA64DB6C03F400530093009BCCE7074B4F
:101F9000DA6C42F40052DA64DB6C03F4005303930E
:101FA000039BA6E700010050180600200010024025
:101FB0000004004810B502682C4988B000238A420A
:101FC000CDE90333CDE90533079307D0284B9A4277
:101FD00033D0284B9A4219D008B010BD03F180438A
:101FE00003F5043303A9DA6C42F00102DA64DB6C16
:101FF00003F001030093022203234FF09040009C62
:10200000CDE9032302F07AF908B010BD03F5863359
:1020100003F5FA73DA6C184842F00202DA64DB6CFA
:1020200003F0020302930122032303A9029CCDE9DA
:10203000032302F063F908B010BD03F5863303F5FE
:10204000FE73DA6C42F00102DA64DB6C03F0010328
:1020500001938022032303A94FF09040019CCDE916
:10206000032302F04BF908B010BD00BF000201408D
:10207000040201400C020140000400480268094BC0
:102080009A4200D07047A3F5005382B09A6C42F494
:1020900080529A649B6C03F480530193019B02B0BD
:1020A000704700BF0030024030B502681A4B89B05B
:1020B00000249A42CDE90344CDE90544079401D0B8
:1020C00009B030BD03F1704303F5023303A9DA6CA4
:1020D00042F48032DA64DA6C02F480320192019ABE
:1020E000DA6C42F00102DA64DB6C03F00103029364
:1020F000102203234FF09040CDE90323029D02F00C
:10210000FDF822462146362001F0FAFD362001F086
:102110002DFE09B030BD00BF0008005070B5026848
:10212000204B88B000249A42CDE90344CDE9054410
:10213000079401D008B070BD03F5D63302269A6D1E
:1021400042F000729A659A6D02F000720092009A55
:10215000DA6C42F00102DA64DA6C02F001020192F8
:10216000019ADA6C42F00202DA64DB6C03F00203DB
:10217000029309254FF4006303A94FF09040029A9F
:102180000795CDE9033602F0B9F84FF4007303A9BF
:10219000054804960795CDE90544039302F0AEF88F
:1021A00008B070BD006400400004004810B502682B
:1021B0002B4988B000238A42CDE90333CDE90533AA
:1021C000079307D0274B9A4232D0274B9A4219D017
:1021D00008B010BD03F1804303F5043303A9DA6CA2
:1021E00042F00102DA64DB6C03F0010300930E227B
:1021F00003234FF09040009CCDE9032302F07EF8CA
:1022000008B010BD03F58633F833DA6C174842F096
:102210000202DA64DB6C03F0020302930722032359
:1022200003A9029CCDE9032302F068F808B010BDB1
:1022300003F58633FC33DA6C42F00102DA64DB6CBE
:1022400003F001030193E022032303A94FF0904020
:10225000019CCDE9032302F051F808B010BD00BF86
:10226000000301400403014008030140000400484A
:102270000268094B9A4200D0704703F5644382B06C
:102280001A6E42F400621A661B6E03F40063019337
:10229000019B02B0704700BF002C014010B50168DF
:1022A000164A88B000239142CDE90333CDE90533C6
:1022B000079301D008B010BD03F1804303F5043348
:1022C0000F489A6D42F004029A659A6D02F004027A
:1022D0000192019ADA6C42F00202DA64DB6C03F0DC
:1022E00002030293C022022303A9029C0793CDE9B3
:1022F000032302F003F808B010BD00BF000800403F
:102300000004004830B50168284A89B00023914292
:10231000CDE90333CDE90533079301D009B030BDD2
:1023200003F1804303F504330224DA6C204842F0C1
:102330000402DA64DA6C02F004020092009ADA6CA9
:1023400042F00202DA64DA6C02F002020192019AAF
:10235000DA6C42F00102DA64DB6C03F001030293F1
:1023600004254FF4005303A9029A0795CDE90334DD
:10237000CDE9054401F0C2FF4FF4004303A90D4825
:102380000393CDE90444CDE9064501F0B7FF4FF4CE
:10239000B852062303A94FF09040CDE904440694B7
:1023A0000392079301F0AAFF09B030BD002C014051
:1023B000000800480004004830B50168164A89B09A
:1023C00000239142CDE90333CDE90533079301D0D2
:1023D00009B030BD03F1804303F504330F489A6D13
:1023E00042F400329A659A6D02F400320192019A29
:1023F000DA6C42F00202DA64DB6C03F0020302934F
:102400000222072303A91824029D0793CDE9034262
:1024100001F074FF09B030BD0044004000040048E2
:1024200010B5014688B00022362001F069FC362044
:1024300001F09CFC154B164C9A6D42F010029A6507
:102440009B6D03F0100301A9029303A8029B02F005
:102450005FFD02F039FD0F4B0F4A2260A3FB002302
:102460009B0C0022013B40F2E73120466360C4E947
:102470000312A26002F0C2FE10B1012008B010BD2C
:10248000204602F043FF08B010BD00BF001002401C
:102490004018002083DE1B430010004008B50448AC
:1024A00003F004FB0348BDE8084001F017BD00BF7E
:1024B00040180020F013002008B54FF0A043402240
:1024C0001A60FEF769FEBDE8084000F031B900BFB0
:1024D000034B04486FF001021A6106F059BE00BFB9
:1024E000002C01408C03002008B50C4B1A69110622
:1024F0000DD40A4B1A69D20505D56FF480721A61A2
:10250000074806F08FFEBDE80840FEF713BE6FF0E7
:1025100080021A61024806F0A5FEEAE7002C01409D
:102520008C0300200648C369DA68D10702D51A690E
:10253000D20700D470476FF001021A6105F04ABC5F
:10254000E002002010B5194CD4F82031DA69910668
:1025500017D4DA6912060ED4DB691B0700D410BD4C
:10256000124807F043FBD4F8203108221A62BDE874
:10257000104000F0EDB80D4807F002FAD4F8203111
:10258000EAE7596A2046C9B207F0CEFA0388012B60
:1025900007D0022B02D0D4F82031DAE700F0D8F8C7
:1025A000F9E700F0DBF8D4F82031D2E70000002092
:1025B00070B5FEF7CBFE1A4C08262546D4F820311C
:1025C000DA6912071DD4DA6910060FD4DA699206A7
:1025D000F6D5596A2846C9B207F0A6FA0388012B36
:1025E0001AD0022BEAD100F0B3F8E7E7284607F04B
:1025F000C7F9D4F82031DA699106EAD4DA6912070A
:10260000E1D5284607F0F2FAD4F820311E6200F036
:102610009FF8D4F82031D6E700F0A0F8CEE700BF4D
:10262000000000202DE9F04F87B02B4D109C059441
:102630002C4682460F46904699460FCCDFF8ACE018
:10264000264EDFF8ACB0C6F800E0F446ACE80F0068
:102650000FCCACE80F0094E80F00CDF800A08CE898
:102660000F0070464B464246394600F07DF8306810
:1026700000F0F0F930683022002100F0F3F9306802
:102680002422012100F0EEF90FCDDFF868C0C6F872
:1026900004C0ACE80F000FCDACE80F0094E80F00C9
:1026A0008CE80F00584607F069F9D6E900200C4B7A
:1026B000059C0294CDE9003259460A4B0A4AFFF7BD
:1026C0003BFA7068CDF840A04B464246394607B009
:1026D000BDE8F04F00F048B8440200201C0600207E
:1026E000099C0008E1990008059A000808020020EA
:1026F00000000020801800200B4B1A8992B21AB1FA
:102700001A89013A92B21A815A89012A03D95A893F
:10271000013A92B25A81054A1388012B03D91388D2
:10272000013B9BB2138070471C060020D805002097
:1027300038B5064C0546206800F02AF8A84200D0BB
:1027400038BD2068BDE8384000F088B91C0600207C
:10275000014B00225A8170471C060020014B4F227A
:102760005A8170471C06002030B4029C8462002508
:1027700080F82C500177C0E9082330BC704700BFB7
:10278000037F8B4286BF80F82C1001200020704709
:1027900090F82C00704700BF70B5D0E9084590F85C
:1027A0002C3084B055F8235054F823605B2900F294
:1027B000A080DFE801F03B9E9E3F9E464C5258664B
:1027C0006C7278868C929E9E9E9E9E9E9E9E9E9EE3
:1027D0009E9E9E9E9E9E9E9E9E9E9E9E9E9E9E9E19
:1027E0009E9E9E9E9E9E9E9E9E9E9E9E9E9E9E9E09
:1027F0009E9E9E9E9E9E9E989E9E9E9E9E9E9E9EFF
:102800009E9E9E9E9E9E9E9E9E9E9E9E9E9E9E9EE8
:102810009E2E434981FB0231A1EBE271304609B2A1
:10282000002205F01BFB012004B070BDD1B2FFF700
:10283000A7FFF9E712F0FF045DD0012C65D001205D
:10284000F2E7286811B205F035FD0120ECE72868B1
:1028500011B205F031FD0120E6E7286811B205F05C
:102860003BFD0120E0E73046019205F09FFB019A15
:102870000390ADF80C203046039905F003FB0120CE
:10288000D2E7686811B205F015FD0120CCE7686851
:1028900011B205F011FD0120C6E7686811B205F01C
:1028A0001BFD0120C0E73046019205F07FFB019A35
:1028B0000390ADF80E203046039905F0E3FA0120AD
:1028C000B2E7A86811B205F0F5FC0120ACE7A868F2
:1028D00011B205F0F1FC0120A6E7A86811B205F0DD
:1028E000FBFC0120A0E7304611B205F07FFB012080
:1028F0009AE7002098E7304605F074FB224601462F
:10290000304605F0B3FA01208EE7304605F032FB81
:1029100000220146304605F0A1FA204684E700BFB8
:10292000ABAAAA2A10B5036A90F82C20013953F8F3
:1029300022400D292CD8DFE801F01712070C0C0EED
:102940001C26212B2B2B2B12204605F0F9FA0628EA
:1029500020D0012010BD204605F0F2FA20B120461B
:1029600005F0A8FA012010BD204605F099FA0120D3
:1029700010BD204605F0A2FA012010BD204605F04A
:1029800039FB012010BD204605F09CFA012010BD46
:10299000002010BD204605F0E1FA012010BD00BF67
:1029A00010B5074B90F82C40006A83FB01C3A3EBE2
:1029B000E17150F8240009B205F050FA012010BD71
:1029C000ABAAAA2AF8B590F82C40406A50F8240027
:1029D000446994B120461E4617460D4607F080F91B
:1029E00029463880204607F081F929463080204664
:1029F00007F084F9069B012418802046F8BD00BF2B
:102A0000F8B51F4690F82C40436ABDF9186053F89A
:102A100024305C690D46204607F050F93A462946B5
:102A2000204607F051F920463246294607F052F970
:102A30000120F8BD82B0036AADF8041090F82C10A4
:102A4000ADF8062053F82100019902B005F01ABA3A
:102A500000207047436903B118477047836903B189
:102A600018477047436803B118477047836803B13C
:102A700018478320704700BF70B5D0E9084590F82B
:102A80002C308CB055F8235054F82360002A00F005
:102A9000898001241470812900F2F281DFE811F0AD
:102AA000B501AF01AB0141013A01360132012E01FE
:102AB00002011E01E701E301FD0022012A012601B6
:102AC000F001F001F001F001F001F001F001F0017E
:102AD000F001D501D101CD01C901C501BE017B01C4
:102AE000EB01F0014A014501DE01D90150017B01F2
:102AF000EB010201FD008501A601A10180010A018F
:102B00006801F001F001F001F001F001F001F001C5
:102B1000F001F001F001F001F00162015C015501EA
:102B20009A01FD00F001F001F001F001F001F00167
:102B3000F001F001F001F001F001F001F001F0010D
:102B4000F001F001F001F001F001F001F001F001FD
:102B5000F001F001F0018E01F001F001F001F0014F
:102B6000F001F001F001F001F001F001F001F001DD
:102B7000F001F001F001F001F001F0018A01BA0169
:102B8000B801F00107010701F001F001F001F001C7
:102B9000F001F001F001F001F001F001F001F001AD
:102BA000F001FA00732975D8DFE811F02F0129012F
:102BB0002501BB00B400B000AC00A8007C00980068
:102BC00061015D0177009C00A400A0007400740006
:102BD00074007400740074007400740074004F0179
:102BE0004B01470143013F013801F50065017400C5
:102BF000C400BF0058015301CA00F50065017C0004
:102C00007700FF0020011B01FA008400E20074003D
:102C10007400740074007400740074007400740014
:102C2000740074007400DC00D600CF00140177003B
:102C300074007400740074007400740074007400F4
:102C400074007400740074007400740074007400E4
:102C500074007400740074007400740074007400D4
:102C6000740008017400740074007400740074002F
:102C700074007400740074007400740074007400B4
:102C80007400740074007400040134013201740093
:102C90008100810000200CB070BD304605F086F93F
:102CA0000014F8E7304605F081F900B2F3E742F28C
:102CB0001F70F0E7826A52F823301A0F013AC3F30B
:102CC0000363012A03F1FF3340F2E280012BE1D8D4
:102CD000E8690028DED006F08FFCDCE7686805F0C4
:102CE000EDFAD8E7A86805F0E9FAD4E7A86805F096
:102CF000F5FAD0E7A86805F0E5FACCE7286805F012
:102D0000EDFAC8E7286805F0DDFAC4E7286805F0A1
:102D1000D5FAC0E7304605F02DF900EB4000400041
:102D2000B9E7304605F010F9B5E7304605F026F969
:102D300000B2B0E768690028ACD006F0E7FFAAE768
:102D4000304605F023F90014A5E7686A06F04CFD4B
:102D500000EB400040009EE70369002B9AD0012160
:102D6000984798E70369002B94D00021984792E791
:102D7000826A52F823301A0F013AC3F30363012A1F
:102D800003F1FF337FD9012B84D8E869002881D073
:102D900006F06EFC7FE7304605F000F900B27AE7F6
:102DA000304605F015F9001475E7304605F006F9D0
:102DB00000B270E7286805F08BFA6CE7304605F042
:102DC000C3F80128304668D005F0D4F800EB400085
:102DD000400060E7686A06F009FD00EB4000400033
:102DE00059E7304605F0F4F800B254E7304605F0F4
:102DF000E5F800144FE7A86A06F0ACFD4BE7A86AB7
:102E00000CB0BDE8704006F0B3BDFFF7C1FC42E76F
:102E1000254840E7286805F05DFA3CE7304605F0B4
:102E2000A1F800EB4000400035E70121FFF71EFE4E
:102E300031E70021FFF71AFE2DE7E86B05F0D6F920
:102E400029E7E86A05F018FA25E7286B04F098FDF1
:102E500021E7304605F09AF800B21CE7304605F04D
:102E60008DF8001417E7686805F038FA13E768680A
:102E700005F028FA0FE7304605F090F800140AE74D
:102E80000020107007E7012BA8693FF67FAF7CE7B1
:102E9000012BA8693FF61DAF1AE705F057F800EBC4
:102EA00040004000F7E600BF7A84A634054BD3F813
:102EB00088204FF0006142F47002C3F888209960C6
:102EC000704700BF00ED00E000B5032083B000F0C4
:102ED00005FF0020FFF7A4FA18B1012003B05DF848
:102EE00004FB0190FEF7C6FF019803B05DF804FBF8
:102EF000034A0449136809680B441360704700BF14
:102F00004C190020E0050020014B1868704700BFF5
:102F10004C19002038B50446FFF7F6FF631C054640
:102F200002D0044B1B681C44FFF7EEFF401BA0427D
:102F3000FAD338BDE005002070B582B000230193BC
:102F4000002800F0A180C56D0446002D00F091809E
:102F5000226893689D0005D5936823F0204323F0F1
:102F60003F0393609368D80017D4754B91681B6832
:102F700074489B0921F01041A0FB030321F03F019D
:102F80009B0941F0805191600193019B2BB1019B02
:102F9000013B0193019B002BF9D19368D9005AD4CE
:102FA000E36D43F01003E365236E43F001032366F2
:102FB000936813F0040F4FF00100E36D52D1DB066C
:102FC00050D4E36D23F4817343F00203E365936807
:102FD000DE0709D44FF0A0435B499B688968CD07A1
:102FE00003F0010340F18380D4E90215E36B2B4326
:102FF0000B43657F94F8241043EA4533012943EAE3
:10300000014303D1A16A013943EA4143E16A21B195
:10301000256B01F4787129430B43D6684B49656BE6
:1030200031400B43D360136923F040632B4313619A
:10303000936859072BD593686369012B4FD0136BA5
:1030400023F00F031363E36D23F0030343F0010345
:10305000E36502B070BD936813F0040F4FF00000F9
:10306000E36DACD0E36D012043F01003E36502B0E3
:1030700070BDFEF727FF22682566936884F85850D4
:103080009D007FF56FAF67E7012002B070BD9368C8
:103090001B07D1D4D16894F83830267F256921F4F4
:1030A00080415B0021F0020143EA86330B43D36089
:1030B00013693DB343F480331361D2F8C03023F475
:1030C0007F5323F03F032B43C2F8C03094F84030C5
:1030D000012B23D0136923F001031361ACE7116BBB
:1030E000236A21F00F01013B0B431363ABE7002B75
:1030F0007FF47AAF164965688B6823F47C132B4301
:103100008B6071E723F480331361D2F8C03023F46D
:103110007F5323F03F03C2F8C030D7E7D4E9113121
:10312000E66C256D0B43116943F00103334321F431
:10313000FF612B4321F004010B4313617CE700BFC7
:10314000DC050020632D3E05000100500740F0FF24
:10315000000300502DE9F041034682B093F8582057
:103160000020012A019000F003811C68A268012060
:10317000560783F858004FD4D1E90020860904F19E
:10318000300506F00C0600F01F0077594FF01F0CB9
:103190000CFA00FCC2F3846227EA0C0782403A432F
:1031A0007251A268550749D5A2680A68A068C0078D
:1031B00013D4CE68C148D4F8B050DFF828C306F065
:1031C0001807F840C2F31207104025EA0705284304
:1031D0006645C4F8B00000F08B80B9490A422BD094
:1031E000B84DB949A8688A4200F0E0761ED0B749C8
:1031F0008A421BD0B6498A4240F0BE8010F08070EF
:103200001AD1B44A944217D0AA6822F0E072164349
:1032100046F08076AE6003E0DA6D42F02002DA65B7
:10322000002283F8582002B0BDE8F081020203D4E6
:10323000B4F1A04F00F0CB800020F1E7A5680A6848
:1032400015F00805B2D18E68C2F3045E0720D20DD6
:1032500000FA0EF0B6F1004F02F004026FEA00002F
:1032600004F1140C00F01A8152F80C7006FA0EF6F4
:103270003840064342F80C60626922F00042626105
:10328000D1F810C0E7680A68BCF1040F04F16000CF
:1032900000F0BB804E6950F82C80DFF84CE2C7F399
:1032A000C1077F0002F0F84242F00042BE401643E0
:1032B00008EA0E0E46EA0E0640F82C600F698E6989
:1032C00050F8272091F81CC022F08072324340F859
:1032D00027200E6950F82620BCF1010F22F0007261
:1032E00008BF4FF00075154340F826500A685DE7A7
:1032F000002F55D092FAA2F0B0FA80F0013000F021
:103300001F00092800F2F28092FAA2F6B6FA86F6B9
:1033100092FAA2F0B0FA80F001300136012500F0F7
:103320001F00B60605FA00F006F0F846064392FACA
:10333000A2F5B5FA85F5013505F01F0505EB450049
:10334000000530434FEAD05C0CF0040C04F1140784
:10335000C0F304505CF807508E680722824025EACB
:10336000020506FA00F028434CF807000A6834E723
:10337000022002B0BDE8F08157498A427FF45CAF79
:1033800010F480007FF458AF524A94423FF454AF97
:10339000AA6822F0E072324342F48002AA603FE75A
:1033A000920E013202F01F050126920602F0F84249
:1033B000AE40092D46EA020605EB4500C0D9A0F152
:1033C0001E02120542F0007242EA0600BAE73D48CA
:1033D000424A8168424C21F0E0710E4346F40006F7
:1033E000866012689209A4FB0212920902EB420263
:1033F00092000192019A002A3FF41EAF019A013A0D
:103400000192019A002AF9D116E7256E256EC2F3C2
:103410001207C5F38465002F4AD1C2F38466B54212
:1034200006D1226E22F0004222660A68C2F3120719
:1034300045684668C6F38466002F79D1C2F3846577
:10344000AE4240F09580426822F0004242600A6835
:1034500085688668C2F31205C6F38466002D71D1B3
:10346000C2F38465AE4200F10C077CD1826822F081
:10347000004282600A6838683868C2F31205C0F3F7
:103480008460002D6AD1C2F3846585427FF48EAEDC
:103490003A6822F000423A600A6887E652F80C6007
:1034A000304042F80C00626942F000426261E7E697
:1034B00092FAA2F6B6FA86F6B1E700BFFFFF070060
:1034C0000000088000030050000021C31000C090DD
:1034D000000052C700010050000084CBDC05002032
:1034E000632D3E0500007F4000F0FF0392FAA2F634
:1034F000B6FA86F692FAA2F0B0FA80F00130013600
:10350000012500F01F00B60605FA00F006F0F846A7
:10351000064392FAA2F5B5FA85F5013505F01F05C7
:1035200005EB4505A5F11E02120542F000724BE7BE
:1035300092FAA2F5B5FA85F5AE4284D08568866820
:10354000C6F3846692FAA2F5B5FA85F5B54200F1A4
:103550000C078BD0C568C068C0F3846092FAA2F5EE
:10356000B5FA85F591E7C668C068C0F384608CE75A
:1035700086688668C6F3846674E700BF2DE9F04369
:1035800090F8583083B00022012B019200F05F8147
:1035900043690122044680F85820002B72D00B6A40
:1035A00093426FD0826E002A40F02A81886A5A1EA8
:1035B000002800F02C8200F07C00CB6A10431843F6
:1035C000D1E90035A26605F01F05C3F38462AA4065
:1035D0001043226860669068000710D491F82600B6
:1035E00091F825504005002D40F0FF80D56891F8F6
:1035F000246025F4401540EA06502843D0609068C6
:1036000010F0040057D0906800209568EF0714D49C
:10361000CF68CA4DD2F8B060DFF84CE307F0180C61
:1036200025FA0CF5C3F3120C1D4026EA0C063543AF
:103630007745C2F8B05000F00E81C1490B421BD053
:10364000C04DC14EA968B34201F0E07700F0A780F9
:10365000BE4EB34200F0A380BD4EB34240F0528153
:10366000CE0109D4BB4B9A4206D0AB6823F0E0737D
:103670001F4347F08077AF60002384F8583003B0D1
:10368000BDE8F083D1E9003009282268A3D1886A17
:103690005D0C05F4785520B1CE6A00F07C00304313
:1036A0000543D06CAC4E30402843D06490686566CA
:1036B0000007A4D492E7956815F00805A5D18E6A95
:1036C00091F82500002E40F0B5800128D0680CBF8D
:1036D00040F0007020F00070D060002091F8306061
:1036E000012E00F04581166926F002061661C3F32B
:1036F00004588F68DB0D072603F0040E02F1140C4A
:1037000006FA08F6B7F1004F6FEA06065EF80C30CD
:1037100000F00B811E4007FA08F737434EF80C7093
:10372000536923F000435361D1F810E0D7680B6868
:10373000BEF1040F02F1600600F02681C7F3C10C50
:103740004F6956F82E90DFF824824FEA4C0C03F0B4
:10375000F84343F0004307FA0CF71F4309EA08084F
:1037600047EA080746F82E70D1F810C08F6956F85E
:103770002C3091F81CE023F080733B4346F82C304A
:103780000F6956F82730BEF1010F23F0007308BF10
:103790004FF000751D4346F827500B6835E70B02C4
:1037A0003FF56AAFB2F1A04F7FF466AFD2F80833AD
:1037B0006A4923F0E0731F4347F40007C2F8087317
:1037C0000B68674A9B09A2FB03239B0903EB430396
:1037D0009B000193019B002B3FF44EAF019B013BEB
:1037E0000193019B002BF9D146E7D56825F44015DC
:1037F0002843D060906810F004007FF404AF5AE7CB
:10380000D1E90030666E00F01F00C3F38465854087
:103810003543501EC4E91950226800287FF4DBAEFE
:10382000D06C4D4E30400543D564906800073FF59D
:10383000E6AED3E6CE6A002E3FF447AF012800F093
:103840000881D06820F00070D060284646E702204A
:1038500003B0BDE8F083BCF1000F2BD19B0E013308
:1038600003F01F069D060123B34005F0F845092E1D
:1038700045EA030506EB460342D91E3B1B0543F010
:1038800000732B434FEAD35C0CF0040C02F11407D5
:10389000C3F304535CF807608D684FF0070E0EFA0F
:1038A00003FE26EA0E0605FA03F333434CF807300D
:1038B0000B68C2E693FAA3F5B5FA85F5013505F074
:1038C0001F05092D00F2A88093FAA3F5B5FA85F536
:1038D00093FAA3F6B6FA86F601360135012706F00B
:1038E0001F06AD0607FA06F605F0F845354393FACC
:1038F000A3F3B3FA83F33B4403F01F0303EB430347
:103900001B05BEE7174EB3427FF4B6AE49023FF542
:10391000B3AE104B9A423FF4AFAEAB6823F0E07306
:103920001F4347F48007AF60A6E61E404EF80C60C8
:10393000536943F000435361F6E600BFFFFF070001
:103940000000088000030050000021C31000C09058
:10395000000052C70001005000401004DC050020A8
:10396000632D3E05000084CB00007F4000F0FF0384
:103970008F6B4E6BD2F810C03E4346F002062CF41B
:10398000FF773E431661B2E6156E156EC3F3120C57
:10399000C5F38465BCF1000F3BD093FAA3F7B7FAE7
:1039A00087F7BD4206D1136E23F0004313660B6800
:1039B000C3F3120C75687768C7F38467BCF1000F16
:1039C0004CD1C3F38465AF4272D1736823F00043D6
:1039D00073600B68B568B768C3F31205C7F38467F3
:1039E000002D45D1C3F38465AF4206F10C0C47D0DE
:1039F000F768F668C6F38466B5427FF406AEDCF875
:103A0000003023F00043CCF800300B68FDE5104691
:103A1000D6E5C3F38467C4E793FAA3F5B5FA85F551
:103A200093FAA3F6B6FA86F601360135012706F0B9
:103A30001F06AD0607FA06F605F0F845354393FA7A
:103A4000A3F3B3FA83F33B4403F01F0303EB4303F5
:103A500013E7E66D46F02006E6653FE693FAA3F528
:103A6000B5FA85F5AF42B0D0B568B768C7F38467DB
:103A700093FAA3F5B5FA85F5BD4206F10C0C12D107
:103A8000B36823F00043B3600B68DCF80050DCF847
:103A90000060C3F31205C6F3846675B193FAA3F50B
:103AA000B5FA85F5A8E7F568F668C6F38466F5E724
:103AB000B768B768C7F3846796E7C3F384659BE785
:103AC00090F85820012A47D0F0B504680E680346E4
:103AD000B4F1A04F4FF0010083F8580007D0DA6D21
:103AE000002142F02002DA6583F85810F0BD274D1E
:103AF000AA68520709D5A268DA6D42F02002DA6599
:103B00000120002283F85820F0BDA06810F00400C6
:103B1000F2D11EB3DFF878E04F68DEF8082093F8A2
:103B200038C022F460423A4342EA4C32CEF80820D0
:103B3000A268D40727D4A86810F0010021D1DEF8CC
:103B400008208C6822F4716121F00F0146EA04021A
:103B50000A43CEF80820D4E7022070470C4A916847
:103B600021F460419160A068A968C90700F00100D4
:103B700007D430B9916821F4716121F00F0191608F
:103B8000BFE70020BDE7AA68BBE700BF0001005007
:103B900000030050F0B583B000230193002854D0F7
:103BA00002681368002B04464FDB437F03F0FF01DC
:103BB000002B7ED0D4E90163D4E903506169176812
:103BC00033430B43166840492B43034331400B43B7
:103BD00013601368180201D53B024ED53B4B9A4245
:103BE00062D004339A426AD004339A4215BF6FF010
:103BF00080426FF000524FF080414FF00051A369B6
:103C00009F0725D0324DA868DE064CBF0843104000
:103C1000A8602F4DE8689F064CBF08431040E8603D
:103C20002B48416145689E074CBF0D431540DB079B
:103C300045601DD5264B1A6811431960637F03F058
:103C4000FF008BB1002003B0F0BD012003B0F0BD38
:103C50001F4B59681140596019680A401A60637F08
:103C600003F0FF00002BEDD10123637703B0F0BD1B
:103C700017490B681A400A60F1E7164B16491B6892
:103C80009B09A1FB03139B0903EB83039B00019397
:103C9000019B002BA2D0019B013B0193019B002BB8
:103CA000F9D10A4B9A429CD16FF400124FF40011E3
:103CB000A5E701770162FEF77DF922687AE76FF4E4
:103CC00080024FF480019AE70F7E00FF000201405E
:103CD00000040140DC050020632D3E05074AD3683F
:103CE0004FF6FF010B40000243F0BF6300F4E060B9
:103CF00043F400330343D360704700BF00ED00E09E
:103D0000184BDB68C3F3022330B4C3F10705042D5D
:103D100003F1040428BF0425062C19D9033B4FF0F6
:103D2000FF349C4022EA04044FF0FF32AA4021EA0B
:103D3000020101FA03F2224312010028D2B20ADB87
:103D400000F1604000F5614080F8002330BC70470E
:103D500000242346E8E7044B00F00F0003441A76E2
:103D600030BC704700ED00E0FCEC00E0002807DB11
:103D700000F01F0101234009024A8B4042F8203025
:103D8000704700BF00E100E00138B0F1807F0ED243
:103D9000084B10B4084C5860F02084F8230000222F
:103DA000072110469A6019605DF8044B70470120A6
:103DB000704700BF10E000E000ED00E000283CD0BC
:103DC000437F10B503F0FF020446FBB123790222C2
:103DD00062771BBB23681A4A5A619A6822F018025C
:103DE0009A60627922BB4FF0FF321A61D4E9052054
:103DF000996821F06001114399609A6822F080026D
:103E0000024301219A600020617710BD0277FEF71E
:103E100035F9237902226277002BDBD0D4E9021234
:103E2000204600F00FF830B962792368002ADAD012
:103E300022691A61DAE7012010BD0120704700BF36
:103E4000B71DC10410B41E2302E013F1FF3321D3C8
:103E500021FA03F4E407F8D5182A1DD8DFE802F0A8
:103E60000F1C1C1C1C1C1C1C231C1C1C1C1C1C1C98
:103E70000D1C1C1C1C1C1C1C2000072B0CD80068D3
:103E80005DF8044B4161836823F018031A43826094
:103E900000207047002AF2D001205DF8044B7047E3
:103EA000062BECD9F8E70F2BE9D9F5E788B10379B0
:103EB00010B503F0FF0204463BB1002302210122AA
:103EC000217118462361227110BD4271FEF7ECF892
:103ED000F3E70120704700BF704700BF03681A680E
:103EE000910410B5044602D55A6B920418D41A688E
:103EF000910002D55A6B920000D410BD04222271A9
:103F000022694FF0005142F00202226159631A689F
:103F100022F0805220461A60BDE8104000F0FAB846
:103F20000422027102694FF4005142F00102026161
:103F300059631A6822F480521A60FFF7CDFF236894
:103F4000D5E700BF4379012B00F0C4802DE9F04193
:103F50008F68144602230122042F0E460546427143
:103F6000037179D0036804F01004F269012A69D062
:103F7000D6E905C0DA6B0721A14022F44048C20708
:103F80006FEA01015AD500204FF4807247EA0C070E
:103F9000A24096F804C0074301EA0801D2437079B1
:103FA000BCF1010F02EA01024FF40078316808BF4A
:103FB00047F4807708FA04F801286FEA080808BF78
:103FC00047F40077022908EA020800F0858048EAF1
:103FD0000108A74047EA0807DF631868D6E903121B
:103FE0004FF48046A64020EA06001860186840F6A4
:103FF000FE76A64020EA060601FA04F03043186077
:104000001868C026A64020EA060018609201186EC3
:10401000C1F3830140F60F7602F470620A4306FA98
:1040200004F102FA04F420EA0102144301210022FF
:104030001C66104629716A71BDE8F081820745D57A
:104040000120A1E7996B326A1F20A04021EA0001FC
:10405000A2400A439A638BE7BCB9FEF755FF0746B7
:1040600004E0FEF751FFC01B01283ED82B685B6BB4
:104070001904F6D40120FEF74DFF2B68726A1A640A
:104080000DE0FEF741FF01282FD82B685B6B002B5A
:10409000F7DB0120FEF73EFF2B68726A5A6404F0DA
:1040A00010049A6CB16AB76840F2FF30A04022EA6F
:1040B0000002A1400A439A64DA6CF16AFF20A04032
:1040C00022EA0002A1400A43DA644EE7BCFA8CF00F
:1040D000400959E70220704700F0F0FE0B4B984270
:1040E0000CD948F400482B6873E72B69032243F08E
:1040F00008032B6110462A71BDE8F081044A2B6841
:1041000090427FF666AF48F4804862E7006889090C
:1041100000B4C404704700BF002800F0D28038B556
:1041200090F85C30044603F0FF02002B00F0C480DE
:104130002268936923F010039361FEF7E5FE0546BC
:1041400005E0FEF7E1FE401B0A2800F2AC80236880
:104150009A691107F5D49A6942F001029A61FEF753
:10416000D3FE054605E0FEF7CFFE401B0A2800F20D
:104170009A8023689A69D207F5D59A69584942F01E
:1041800002028B429A6100F0A380227C012A9A6984
:104190000CBF22F0400242F040029A61627C012A88
:1041A0009A690CBF42F4804222F480429A61A27C58
:1041B000012A9A690CBF22F4805242F480529A611B
:1041C0009A69D4E9025122F440722A439A619A69A9
:1041D00022F0A4029A611A69012922F010021A61E0
:1041E00071D079B102299A6976D042F080029A6141
:1041F0001A69032942F010021A6103D19A6942F048
:1042000020029A61D4E90612013A206A01391202A9
:1042100042EA4162616901380243013942EA0142DE
:10422000B5F5407FDA610ED1D4E90B52D4E909101B
:10423000013A1201013D42EA0522013802430139E7
:1042400042EA0142DA60D3F8C020E56B616B254891
:104250002A43C3F8C020D3F88020206422F4F81247
:1042600042EA0142C3F88020D3F88020A16B1E4DA2
:10427000656422F0706242EA0162C3F880201B4943
:104280001B4B1C4A4035C4E91423C4E912514FF4B6
:104290005472002105F062FD002001232066A06514
:1042A00084F85C3038BD236E032243F0010323669B
:1042B000012084F85C2038BD80F85D20FDF72EFFDA
:1042C00036E7012070479A6942F004029A6199E743
:1042D000094A6168116058E742F020029A6191E74B
:1042E0000064004000A4004070A4004088A5004085
:1042F00078A6004060A6004000650040D1F800C0EC
:10430000BCF1000F00F0C7802DE9F04FDFF8B4E1F9
:1043100083B0884600254FF0010909FA05F212EA38
:104320000C0674D0D8F8041021F0100ABAF1020F6C
:1043300074D06F000323D0F800B0BB40DB4301F022
:10434000030403EA0B0BBC400AF1FF3A44EA0B04F6
:10435000BAF1010F046040F28280C468D8F80820E6
:104360002340BA401A43CF00C26050D54F4A136E63
:1043700043F001031366136E25F0030404F1804437
:1043800003F0010304F58034019305F00303019A5F
:10439000A2689B000F279F40B0F1904F22EA0702CE
:1043A00013D0434FB84272D0424FB8426AD0424F06
:1043B000B84271D0414FB84273D0414FB8420CBFA0
:1043C0000527062707FA03F31A43A260DEF8003038
:1043D000F243CC0354BF13403343CEF80030DEF831
:1043E00004308F0354BF13403343CEF80430DEF85B
:1043F0000830CC0254BF13403343CEF80830DEF807
:104400000C30890254BF13403343CEF80C300135D1
:104410003CFA05F381D103B0BDE8F08FEF0800EB63
:10442000870705F007043B6AA4004FF00F0A0AFA59
:1044300004FB23EA0B0AD8F81030A34043EA0A032E
:104440003B626F000323D0F800A0BB40DB4301F0C8
:10445000030403EA0A0ABC4044EA0A0404608468CC
:1044600004EA030AD8F80C40BC4044EA0A04846019
:10447000D0F804A0C1F300142AEA0202AC401443AD
:1044800044606AE7022707FA03F31A439DE709FA33
:1044900003F31A4399E77047032707FA03F31A4314
:1044A00093E7042707FA03F31A438EE7001002404C
:1044B0000004004800080048000C004800100048B4
:1044C000001400480004014000285CD090F83A3005
:1044D000052B58D090F83A30022B54D03A4B70B597
:1044E0001A6E42F001021A661B6E82B003F00103DD
:1044F0000193019B90F83A3003F0FF02002B44D067
:104500000446FDF753FEA36823F02002402A2268E8
:1045100041D06068E6681168256903433343E06A67
:10452000666A2B4321F010010143A56A11603343F1
:10453000D4E90C602B432549156843EAC64343EA96
:104540000063207D2940012843EA010314BF0021B4
:104550004FF480710B4313609369002B09DBD4E99E
:104560000635206A91692B43034321F03F010B4339
:10457000936194F83A3003F0FF004BB9012384F8BB
:104580003A3002B070BD0120704780F83920B7E79B
:10459000002002B070BD666811682069E56A334387
:1045A000034321F01001606A2943A56A11600343A7
:1045B000206B166805492B43656B43EAC0433140C5
:1045C000207D43EA0563BEE700100240113E00E093
:1045D0003B4A10B4136868B903F4C063B3F5806F45
:1045E00014D0D2F880305DF8044B23F48073C2F805
:1045F00080307047B0F5007F2FD023F4C06343F4C0
:104600008063136000205DF8044B7047D2F880107F
:104610002C4B2D4821F48071C2F88010116821F4D0
:10462000C06141F4007111601C685169322303FBC1
:1046300004F3A0FB03039B0C480503F1010306D51B
:1046400000E023B15169490503F1FF33F9D41C4B54
:104650005B695C05D6D50320D5E703F4C063B3F5E9
:10466000806F09D0D2F880305DF8044B43F480733A
:104670000020C2F880307047D2F88010114B1248E9
:1046800041F48071C2F88010116821F4C06141F4D6
:10469000007111601C685169322303FB04F3A0FB15
:1046A00003039B0C480503F10103D0D501E0002B67
:1046B000CDD05169490503F1FF33C8D5F7E700BFF5
:1046C00000700040DC05002083DE1B43002800F062
:1046D0006C812DE9F0410368D90782B004462DD5DD
:1046E000B7498A68C96802F00C020C2A00F0F5800C
:1046F000082A00F0F7806368B3F5803F00F02E8150
:10470000B3F5A02F00F0E081AD4D2A6822F480328D
:104710002A602A6822F480222A60002B40F023813C
:10472000FEF7F2FB064605E0FEF7EEFB801B642871
:1047300000F237812B689F03F6D423689E0700F1AF
:10474000A5801A0719D563699D4D002B00F0D7800D
:10475000D5F8943043F00103C5F89430FEF7D4FB4C
:10476000064605E0FEF7D0FB801B022800F2198107
:10477000D5F894309F07F5D5236859073FD5904B5E
:104780009A6DD20000F12B819A6D42F080529A65A9
:104790009B6D03F080530193019B0126894D2A688C
:1047A000D70540F1EE80A368012B00F01A81052B9C
:1047B00000F0CB81824DD5F8902022F00102C5F89F
:1047C0009020D5F8902022F00402C5F89020002B0C
:1047D00040F00E81FEF798FB41F28837804606E0F4
:1047E000FEF792FBA0EB0800B84200F2DA80D5F8A1
:1047F00090309A07F4D4002E40F0238123689B0662
:1048000018D5A3696E4D002B00F00781D5F89830BC
:1048100043F00103C5F89830FEF776FB064605E045
:10482000FEF772FB801B022800F2BB80D5F898309F
:104830009F07F5D5E06928B3614DAA6802F00C0224
:104840000C2A00F04E812A68022822F080722A6029
:1048500000F0FD80EA6822F00302EA60EA6822F0D4
:10486000887222F48032EA60FEF74EFB2C46054641
:1048700005E0FEF749FB401B022800F29280236806
:104880009B01F6D4002002B0BDE8F0814C4A936849
:10489000D26803F00C030C2B45D0042B47D0E368FF
:1048A000474D002B00F083802B6843F480732B600E
:1048B000FEF72AFB064604E0FEF726FB801B0228D3
:1048C0006FD82B685805F7D56B68226923F0FE4333
:1048D00043EA02636B60236833E701F003010329B5
:1048E0007FF409AF364A126892037FF527AF6268FA
:1048F000002A7FF423AF012002B0BDE8F081D5F893
:10490000943023F00103C5F89430FEF7FDFA064613
:1049100004E0FEF7F9FA801B022842D8D5F894305B
:104920009807F6D428E702F00302022AB7D1244BF5
:104930001B685D0502D5E368002BDCD0204A2069A6
:104940005368214923F0FE4343EA0063536008683B
:10495000FDF766FD0028CED12368F2E6184A1368F9
:1049600043F480331360FEF7CFFA154D064604E09A
:10497000FEF7CAFA801B642813D82B689B03F7D56F
:10498000DBE62A6842F480722A60FEF7BDFA074629
:104990002B68D8053FF507AFFEF7B6FAC01B022813
:1049A000F6D9032002B0BDE8F081012070472B68E2
:1049B00023F480732B60FEF7A7FA06460BE000BFD6
:1049C0000010024000700040E4050020FEF79CFA51
:1049D000801B0228E5D82B685905F7D4BCE70026D0
:1049E000DCE6614AD2F8903043F00103C2F890301F
:1049F000FEF78AFA5C4D804641F2883705E0FEF703
:104A000083FAA0EB0800B842CBD8D5F890309907CC
:104A1000F5D5002E3FF4F2AE13E0D5F8983023F030
:104A20000103C5F89830FEF76FFA064604E0FEF77A
:104A30006BFA801B0228B4D8D5F898309807F6D4C2
:104A4000F8E6494A936D23F080539365D6E6FEF766
:104A50005BFA064604E0FEF757FA801B0228A0D84E
:104A60002B689901F7D4E968404B226AA76AE66A85
:104A7000606A0B401343D4E90C1243EA0723013860
:104A800043EAC663490843EA00130139520843EA7E
:104A90004153013A43EA4263EB602B68324C43F0E6
:104AA00080732B60EB6843F08073EB60FEF72CFAA9
:104AB000054605E0FEF728FA401B02283FF671AFD5
:104AC00023689A01F6D5DDE603F18043A3F53C3374
:104AD0001A6842F480221A601A6842F480321A601E
:104AE00041E701283FF408AFEB68226A03F00301B5
:104AF00091427FF400AF616A03F0F0020139B2EB3A
:104B0000011F7FF4F8AEA16A03F4FE42B2EB012F5D
:104B10007FF4F1AEE16A03F07842B2EBC16F7FF44B
:104B2000EAAE226B5208013A03F4C001B1EB425FD6
:104B30007FF4E1AE626B5208013A03F0C063B3EB5D
:104B4000426F14BF01200020D6E6074BD3F8902017
:104B500042F00402C3F89020D3F8902042F0010202
:104B6000C3F8902044E700BF001002400C809F0172
:104B7000002800F00581AD4A2DE9F843136803F0E1
:104B80000F038B420CD2136823F00F030B43136007
:104B9000136803F00F038B4202D00120BDE8F883B5
:104BA0000368DF0704460D4640F188804268032A07
:104BB00000F0AD809E4B022A1B6800F0FF805B0571
:104BC000EBD59B4B996801F00C0104290AD0996838
:104BD00001F00C01082905D0996801F00C010C299D
:104BE00000F0FB804FF00008914EB36823F0030300
:104BF0001A43B260FEF788F941F28837814605E032
:104C0000FEF782F9A0EB0900B84274D8B368626875
:104C100003F00C03B3EB820FF2D123689F0740F13E
:104C2000D380580704D582498A6842F4E0628A60DA
:104C3000190706D57E4A936823F47C5343F4E06356
:104C400093607B4AA168936823F0F0030B43936061
:104C5000764E326802F00F02AA4237D823685A070C
:104C600006D57349E0688A6822F4E06202438A60EC
:104C70001B0743D46E4A936803F00C03042B00F027
:104C8000D380936803F00C03082B00F09B8093689B
:104C900003F00C030C2B75D00023654A654C926819
:104CA000654866490068C2F30312A25C02F01F0265
:104CB000D3400B60BDE8F843FDF7B2BB9E07B0D40C
:104CC0005A4E326802F00F02AA42C7D9326822F067
:104CD0000F022A433260FEF717F941F28837804607
:104CE000336803F00F03AB42B8D0FEF70DF9A0EB29
:104CF0000800B842F4D90320BDE8F8834C4A216982
:104D0000936823F4605343EAC1039360B2E74849D0
:104D1000086880017FF541AFCE68C868484F06F04B
:104D20000306032ECE680CBF46494749C0F3031063
:104D30000130B1FBF0F1C6F306203D4E01FB00F15E
:104D4000F068C0F3416001304000B1FBF0F1B942BE
:104D50007FF648AFB16811F0F00F07D013F00208EA
:104D60003FF442AFA368002B7FF43CAF30498B681F
:104D700023F0F00343F080038B604FF0800833E7AB
:104D800001207047D068D368D26800F00300C3F3F5
:104D900003130328C2F3062203F101010CBF294BC0
:104DA000294BB3FBF1F303FB02F3214AD268C2F3B0
:104DB000416201325200B3FBF2F36EE799033FF513
:104DC00000AFEAE61F4B68E7B8F1000F3FF440AFD1
:104DD000B36823F0F003B3603AE7D868D968184E97
:104DE00000F003000328D8680CBF164B164BC1F324
:104DF00003110131B3FBF1F3C0F306210C4803FBAF
:104E000001F3C168C1F3416101314900B3FBF1F322
:104E1000B3427FF6E7AE836823F0F00343F08003EC
:104E200083604FF08008DFE6074B36E70020024042
:104E300000100240DC9E0008E4050020DC05002094
:104E400000B4C40400127A000024F400184B9A68DD
:104E500002F00C02042A27D09A6802F00C02082AF9
:104E600024D09A6802F00C020C2A01D0002070476E
:104E7000D968D868DB6801F00301C0F30310032987
:104E8000C3F3062300F101020CBF0A480A48B0FB35
:104E9000F2F000FB03F0064BDB68C3F34163013320
:104EA0005B00B0FBF3F07047034870470148704760
:104EB0000010024000127A000024F400014B186830
:104EC000704700BFDC050020054B064A9B68064979
:104ED000C3F302230868D35C03F01F03D840704774
:104EE00000100240EC9E0008DC050020054B064A3D
:104EF0009B680649C3F3C2230868D35C03F01F0311
:104F0000D840704700100240EC9E0008DC050020ED
:104F10000E4B0F2202609A6802F0030242609A6808
:104F200002F0F00282609A6802F4E062C2609B685C
:104F3000DB0810B403F4E063054C036123685DF8FB
:104F4000044B03F00F030B60704700BF00100240DA
:104F500000200240024A136843F4002313607047A4
:104F6000001002402DE9F0410368044613F40020CC
:104F700082B057D09F4B9A6DD00040F10D81002731
:104F80009D4D2B6843F480732B60FDF7BDFF0646F3
:104F900005E0FDF7B9FF801B022800F20F812B68A6
:104FA000D905F6D5934B216CD3F8902012F44072BA
:104FB00028D08A4226D0D3F89000D3F8902042F42B
:104FC0008032C3F89020D3F8902022F48032C3F8C6
:104FD000902020F44075C207C3F8905012D51D46AA
:104FE000FDF792FF41F28836804606E0FDF78CFF20
:104FF000A0EB0800B04200F2E180D5F890309B07AA
:10500000F4D5216C7B4AD2F8903023F440730B43E3
:10501000C2F89030002027B1764A936D23F0805378
:1050200093652368DE0708D572496568D1F8882042
:1050300022F003022A43C1F888209D0708D56D4954
:10504000A568D1F8882022F00C022A43C1F88820F4
:10505000590708D56749E568D1F8882022F0300261
:105060002A43C1F888201A0708D562492569D1F872
:10507000882022F0C0022A43C1F888209F0608D564
:105080005C496569D1F8882022F440622A43C1F85E
:1050900088205E0608D55749A569D1F8882022F4F2
:1050A00040522A43C1F888201D0608D55149E569B8
:1050B000D1F8882022F440422A43C1F88820D9053B
:1050C00008D54C49256AD1F8882022F440322A4379
:1050D000C1F888209A0508D54649656AD1F8882024
:1050E00022F440222A43C1F888205F050BD54149AC
:1050F000A56AD1F8882022F440122A43B5F5801F12
:10510000C1F888205CD01E050BD53A49E56AD1F874
:10511000882022F440022A43B5F5800FC1F8882088
:1051200053D0DD040BD53349256BD1F8882022F00C
:1051300040722A43B5F1807FC1F888204AD0990493
:105140000BD52C49656BD1F8882022F040622A43A8
:10515000B5F1006FC1F8882041D05A040BD525491C
:10516000A56BD1F8882022F040622A43B5F1006F88
:10517000C1F8882038D01B040BD51E4AE16BD2F849
:10518000883023F040530B43B1F1805FC2F8883080
:105190000DD002B0BDE8F0819A6D42F080529A6560
:1051A0009B6D03F080530193019B0127E8E6D368D0
:1051B00043F48033D36002B0BDE8F08103202AE7D6
:1051C000CA6842F48012CA609DE7CA6842F480123D
:1051D000CA60A6E7CA6842F48012CA60AFE7CA682C
:1051E00042F48012CA60B8E7CA6842F48012CA600A
:1051F000C1E700BF001002400070004000286BD0E3
:10520000F8B590F83D30044603F0FF0263B322681E
:105210003B4EA569E0686168022384F83D30B242E4
:1052200013685BD0B2F1804F3CD0A6F59436B24201
:105230001FD006F58066B2421BD006F59636B24204
:1052400017D006F54066B24257D006F58066B242E6
:1052500053D006F58066B2424FD023F080032B4333
:105260001360D062916217E080F83C20FDF700F8EF
:10527000CDE7A668234F23F070033343266923F458
:105280004073334323F080032B43BA421360D06250
:10529000916215D16369136301235361002084F87F
:1052A0003D30F8BDA768266923F070033B4323F423
:1052B0004073334323F080032B431360D062916229
:1052C000114B9A42E6D003F580639A42E2D003F58F
:1052D00080639A42E0D1DDE701207047A768266924
:1052E00023F070033B4323F44073334323F08003E4
:1052F0002B431360D0629162CCE72669F3E700BFCD
:10530000002C014000340140004001400368094A7C
:10531000D96841F00101D96099680A40062A06D08F
:10532000B2F5803F03D01A6842F001021A600020F3
:10533000704700BF07000100704700BF00286BD016
:10534000F8B590F83D30044603F0FF0263B32268DD
:105350003B4EA569E0686168022384F83D30B242A3
:1053600013685BD0B2F1804F3CD0A6F59436B242C0
:105370001FD006F58066B2421BD006F59636B242C3
:1053800017D006F54066B24257D006F58066B242A5
:1053900053D006F58066B2424FD023F080032B43F2
:1053A0001360D062916217E080F83C20FFF7C4FFE1
:1053B000CDE7A668234F23F070033343266923F417
:1053C0004073334323F080032B43BA421360D0620F
:1053D000916215D16369136301235361002084F83E
:1053E0003D30F8BDA768266923F070033B4323F4E2
:1053F0004073334323F080032B431360D0629162E8
:10540000114B9A42E6D003F580639A42E2D003F54D
:1054100080639A42E0D1DDE701207047A7682669E2
:1054200023F070033B4323F44073334323F08003A2
:105430002B431360D0629162CCE72669F3E700BF8B
:10544000002C01400034014000400140002800F0E1
:10545000AA8090F83D302DE9F04103F0FF020446A8
:105460000D46002B38D02368594ED4F818C0E06898
:105470006168022284F83D209A6822F4A03222F06A
:1054800007029A60B3421A6800F08F80B3F1804F30
:105490006ED0A6F59436B34223D006F58066B342AB
:1054A0001FD006F59636B3421BD006F54066B342D0
:1054B00000F08B8006F58066B34200F0868006F52A
:1054C0008066B34200F0818022F0800242EA0C0242
:1054D0001A60D862996218E080F83C20FCF7DEFE82
:1054E000C1E7A6683B4F22F070023243266922F4DE
:1054F0004072324322F0800242EA0C02BB421A6040
:10550000D862996243D162691A634FF0010CC3F803
:1055100014C098689E69AF69A9682A69D5F800E047
:1055200026F44078EE6941EA07211201EF6842EA69
:1055300006223A432F6A1E6A28F0030841EA08014E
:1055400042EA07326F696D6821F47C4121F0FC0169
:1055500026F0AA0645EA071540EA0E000A4335433D
:1055600098609A6100201D6284F83DC0BDE8F0811A
:10557000A768266922F070023A4322F4407232434F
:1055800022F0800242EA0C021A60D8629962124A42
:105590009342B8D002F580629342B4D002F58062A3
:1055A0009342B2D1AFE701207047A768266922F085
:1055B00070023A4322F44072324322F0800242EAFF
:1055C0000C021A60D86299629DE72669F2E700BF73
:1055D000002C0140003401400040014090F83C3074
:1055E000012B00F0B281F0B40223012480F83C408A
:1055F00080F83D30142A54D8DFE812F0150053002B
:10560000530053009C0053005300530066015300A5
:1056100053005300E0005300530053002401530093
:10562000530053005C000368D1F808C01D6A0F687E
:10563000A44E25F001051D621A6A5D689C6924F478
:10564000803422F0020224F07304B34242EA0C02D6
:1056500044EA070408D006F50066B34204D006F514
:105660004066B34240F08B81CE6822F0080232439C
:10567000D1E9056725F440753E4322F00402354325
:105680004E685D609C615E631A629C690D6944F0BE
:1056900008049C61996921F0040199619A692A437F
:1056A0009A610023012280F83D2080F83C30F0BC54
:1056B000184670470368D1F808C01D6A0F68814E0C
:1056C00025F480151D621C6A5D681A6D22F08072D7
:1056D00024F4001422F4E042B34244EA0C5442EAB7
:1056E00007220FD006F50066B3420BD006F54066E0
:1056F000B34207D006F58066B34203D006F5806654
:10570000B34204D14E6925F4802545EA86254E68CA
:105710005D601A65DE641C621C6D0D6944F40064F2
:105720001C65196D21F4806119651A6D42EA052224
:105730001A65B6E70368D1F808C01D6A0F68614EA4
:1057400025F010051D621C6A5D689A6922F080725E
:1057500024F0200422F4E642B34244EA0C1442EA64
:10576000072200F0F48006F50066B34200F0EF80F7
:1057700006F54066B34207D006F58066B34203D013
:1057800006F58066B34206D1D1E9056725F4406588
:105790003E4345EA86054E685D609A619E631C62E1
:1057A0009C690D6944F400649C61996921F48061ED
:1057B00099619A6942EA05229A6172E70368D1F811
:1057C00008C01D6A0F683F4E25F480551D621C6A93
:1057D0005D68DA6922F0807224F4005422F4E64213
:1057E000B34244EA0C3442EA072200F0C08006F5D6
:1057F0000066B34200F0BB8006F54066B34207D0B6
:1058000006F58066B34203D006F58066B34206D142
:10581000D1E9056725F440453E4345EA86154E68C3
:105820005D60DA611E641C62DC690D6944F4006429
:10583000DC61D96921F48061D961DA6942EA052223
:10584000DA612EE70368D1F808C01D6A0F681D4EA3
:1058500025F480351D621C6A5D681A6D22F4803261
:1058600024F4003422F07002B34244EA0C4442EAC9
:1058700007020FD006F50066B3420BD006F540666E
:10588000B34207D006F58066B34203D006F58066C2
:10589000B34204D14E6925F4803545EA06254E68A9
:1058A0005D601A659E641C621C6D0D6944F00804FD
:1058B0001C65196D21F0040119651A6D2A431A65DA
:1058C000EFE600BF002C01400368D1F808C01D6A54
:1058D0000F68304E25F480751D621C6A5D68DA69B8
:1058E00022F4803224F4007422F07302B34244EABA
:1058F0000C2442EA070232D006F50066B3422ED0ED
:1059000006F54066B34207D006F58066B34203D081
:1059100006F58066B34206D1D1E9056725F4405506
:105920003E4345EA06154E685D60DA61DE631C623F
:10593000DC690D6944F00804DC61D96921F00401D7
:10594000D961DA692A43DA61ABE602207047CE6892
:1059500024F0800444EA061424F0400414E7CE68DE
:1059600024F4006444EA062424F48064D4E7CE6876
:1059700024F4004444EA063424F4804448E706F55D
:105980008066B3423FF470AE06F58066B3427FF4A2
:1059900077AE69E6002C014090F83C30012B4ED0E8
:1059A00002680223F0B480F83D3093680446D1E9E0
:1059B000005023F4401323F07003034323F4803397
:1059C00023F007032B430126502884F83C609360A2
:1059D00052D01FD960283CD070280AD1D1E9025397
:1059E000086991682B4343EA002321F47F410B436C
:1059F0009360D36823F04003D360D368012500216E
:105A000023F48043D360084684F83D5084F83C106A
:105A1000F0BC70474028ECD1052D12D0B5F1011F24
:105A20000FD0156A106A0E6920F0010010629369A8
:105A300023F0F00343EA061393611562D9E70220CD
:105A400070470120002384F83D0084F83C30F0BC0E
:105A50007047106A8D680E6920F01000106291691D
:105A6000136A21F4704123F0A00341EA063143EAAE
:105A7000051391611362BCE7156A166A88680F699D
:105A800026F001061662936925F00A0123F0F0035F
:105A9000014343EA071393611162AAE7704700BF0D
:105AA000704700BF704700BF704700BF03681A69A6
:105AB000910710B5044603D5DA68920700F18A8091
:105AC0001A69520702D5DA68500770D41A691107AB
:105AD00002D5DA68120758D41A69D10602D5DA68F5
